:08000000803102288731FD2F39
:100F8C00723021009900950123008C018D01210004
:100F9C008C013F308D008E013F3024008D002000ED
:100FAC008C018D018E010D18E02FAA308C00D92FE9
:100FBC0055308C008D18E52FDE2F99308C000D19D3
:100FCC00EA2FE32F66308C008D19EF2FE82F963027
:100FDC008C000D1AF42FED2F69308C008D1AF92F1F
:100FEC00F22F69308C000D1FF72F8C01D92F2000A8
:040FFC008731C62F44
:020000040001F9
:04000E00E4D9FFDE54
:00000001FF
