:08000000803102288731FD2F39
:100F940072302100990020008C018D018E010F30E8
:100FA40021008C008D018E0123008C018D0108002D
:100FB4008731CA278731F22F8C18E22F8030F12F26
:100FC4000C19E62F4030F12F8C1DEA2FC030F12F81
:100FD4002030F12FA030F12F6030F12FE0308D0060
:100FE40020000C1CDE2F8C1CEC2F0C1DEE2F8C19FA
:100FF400F02F8D01F22F20008731DA2F3F34063491
:101004005B344F3466346D347D3427347F346F342D
:1010140077347C3439345E347934713401340234B5
:041024000434083454
:020000040001F9
:04000E00E4D9FFDE54
:00000001FF
