:08000000803102288731FD2F39
:100F8C00723021009900950123008C018D01210004
:100F9C008C013F308D008E013F3024008D002000ED
:100FAC008C018D01FB2FAA308E000D1CD92F8E01C8
:100FBC008D18E32F55308E00DE2F8E010D19E92F81
:100FCC0099308E00E42F8E018D19EF2F66308E0034
:100FDC00EA2F8E010D1AF52F96308E00F02F8E0110
:100FEC008D1AFB2F69308E00F62F8E01DB2F20001F
:040FFC008731C62F44
:020000040001F9
:04000E00E4D9FFDE54
:00000001FF
