:08000000803102288731FD2F39
:100F8200723021009900950123008C018D0121000E
:100F92008C013F308D008E013F3024008D002000F7
:100FA2008C018D018E010D18DB2FAA308C00D42FFD
:100FB20055308C008D18E02FD92F99308C000D19E7
:100FC200E52FDE2F66308C008D19EA2FE32F963045
:100FD2008C000D1AEF2FE82F69308C008D1AF42F38
:100FE200ED2F69308C000D1BF92FF22F69308C0028
:0E0FF2008D1FF72F8C01D42F20008731C12FC7
:020000040001F9
:04000E00E4D9FFDE54
:00000001FF
