:08000000803102288731FD2F39
:100F8000723021009900950123008C018D01210010
:100F90008C013F308D008E013F3024008D002000F9
:100FA0008C018D018E010D18DA2FAA308E000D1CD8
:100FB000D72F8E018D18E12F55308E008D1CDE2F1E
:100FC0008E010D19E82F99308E000D1DE52F8E0131
:100FD0008D19EF2F66308E008D1DEC2F8E010D1AAE
:100FE000F62F96308E000D1EF32F8E018D1AD32F03
:100FF00069308E008D1EFA2FD22F20008731C02F2E
:020000040001F9
:04000E00E4D9FFDE54
:00000001FF
