:020000040000FA
:08000000803102288731FD2F39
:100BAE00F301F401E52D0330F2009830890BDD2DB1
:100BBE00F20BDD2D0130F3070030F43D71087402A5
:100BCE00031DEB2D70087302031CEE2DEF2DDA2D95
:100BDE0008002000A801A9010030A7000030A600DF
:100BEE000030A5000030A400A201A301A001A101C4
:100BFE00723021009900950123008C018D01210096
:100C0E008C01B8308D008E01A03024008D00013093
:100C1E0020008C008D0101308E00852E0A30F000F0
:100C2E000030F1008531D725853120008D1E202E14
:100C3E00212E152E0130A8070030A93D2908803A33
:100C4E00F50080307502031D2E2E08302802031C7D
:100C5E00312E322E352E2000A801A90100302000A1
:100C6E00A7000030A6000030A5000130A40028081F
:100C7E002904031D432E442E462E01308C002803DA
:100C8E002904031D4B2E4C2E4E2E02308C000230AA
:100C9E0028062904031D542E552E572E04308C0081
:100CAE00033028062904031D5D2E5E2E602E0830AB
:100CBE008C00043028062904031D662E672E692E2B
:100CCE0010308C00053028062904031D6F2E702E5F
:100CDE00722E20308C00063028062904031D782E33
:100CEE00792E7B2E40308C00073028062904031DF8
:100CFE00812E822E852E80308C00852E8D1E882E84
:100D0E00892E1C2EF02E0A30F0000030F1008531B5
:100D1E00D725853120008D1F952E962E8A2EFF30D9
:100D2E00A807FF30A93DA91F9D2E9E2EA22E07308B
:100D3E00A8000030A9000030A7000030A600003047
:100D4E00A5000130A40028082904031DAF2EB02EE3
:100D5E00B22E01308C0028032904031DB72EB82EA5
:100D6E00BA2E02308C00023028062904031DC02E34
:100D7E00C12EC32E04308C00033028062904031D17
:100D8E00C92ECA2ECC2E08308C0004302806290419
:100D9E00031DD22ED32ED52E10308C0005302806F2
:100DAE002904031DDB2EDC2EDE2E20308C000630B7
:100DBE0028062904031DE42EE52EE72E40308C0074
:100DCE00073028062904031DED2EEE2EF02E80305E
:100DDE008C008D1FF32EF42E912E0D1AF72EF82E59
:100DEE00FC2E8D1DFB2EFC2E042F0D1EFF2E002F14
:100DFE00072F8D1D032F042F072FA201A3010B2FE9
:100E0E000130A2070030A33D2308803AF500803060
:100E1E007502031D142F01302202031C172F182FE9
:100E2E00282F20002308803AF50081307502031D1B
:100E3E00222FF53022020318252F262F282F2000CF
:100E4E000D1120002308803AF50085307502031D30
:100E5E00322FDD302202031C352F362F3D2F20007E
:100E6E000D11DC30A2000530A3003F2F20000D1520
:100E7E000D1D422F432F592F0130A0070030A13DE9
:100E8E002108803AF50080307502031D502F653021
:100E9E002002031C532F542F592F64302000A00022
:100EAE000030A10020000D195D2F5E2F602FA001D4
:100EBE00A1012108803AF50080307502031D692FCB
:100ECE0064302002031C6C2F6D2F702F20000D1329
:100EDE00722F20000D17A71B822F2708031D832FAB
:100EEE002608031D832F2508031D832F013024029E
:100EFE00031C822F832F8B2F0130A4070030A53DBA
:100F0E000030A63D0030A73DA71B9A2F2708031DD2
:100F1E009B2F2608031D9B2F103024022730253BC4
:100F2E00031C9A2F9B2F9C2F8E01A71BAB2F2708DC
:100F3E00031DAC2F2608031DAC2FA83024026130F0
:100F4E00253B031CAB2FAC2F852E0030A7000030A5
:100F5E00A6000030A5000030A40028082904031DB7
:100F6E00B92FBA2FBC2F01308E0028032904031D80
:100F7E00C12FC22FC42F02308E0002302806290442
:100F8E00031DCA2FCB2FCD2F04308E000330280621
:100F9E002904031DD32FD42FD62F08308E000430F2
:100FAE0028062904031DDC2FDD2FDF2F10308E00C5
:100FBE00053028062904031DE52FE62FE82F2030E3
:100FCE008E00063028062904031DEE2FEF2FF12F79
:100FDE0040308E00073028062904031DF72FF82F06
:100FEE00852E80308E00852E80310228200085319E
:020FFE00F02DD4
:020000040001F9
:04000E00E419FF1ED4
:00000001FF
