:08000000803102288731FD2F39
:100E9A00F301F40171087402031D552F70087302DF
:100EAA00031808000330F2009830890B5A2FF20B0E
:100EBA005A2F0130F3070030F43D4F2FFC01FD019A
:100ECA00FA01FB010030F9000030F8000030F700A9
:100EDA000030F600723021009900950123008C0140
:100EEA008D0121008C01FC308D008E01FC30240024
:100EFA008D0020008C018D018E019D2F0A30F0009B
:100F0A000030F10087314D27873120008D1F832F54
:100F1A000130FC070030FD3D7D08803AF500803045
:100F2A007502083003197C02031C9D2FFC01FD0188
:100F3A0020008D1F8A2F7C087D04031DA62F0130F7
:100F4A008C007C037D04031DAC2F02308C00023020
:100F5A007C067D04031DB32F04308C0003307C060D
:100F6A007D04083003198C0004307C067D04031DBF
:100F7A00C02F10308C0005307C067D04031DC72F5E
:100F8A0020308C0006307C067D04031DCE2F4030B5
:100F9A008C0007307C067D04031DD52F80308C0021
:100FAA007B087D06031DDB2F7A087C06031DE52FCF
:100FBA000030F9000030F8000030F7000030F60089
:100FCA007B087D06031DEB2F7A087C0603199D2FEB
:100FDA000A30F0000030F10087314D2787310130A7
:100FEA00F6070030F73D0030F83D0030F93D9D2FFF
:060FFA0020008731632F87
:020000040001F9
:04000E00E4D9FFDE54
:00000001FF
