:08000000803102288731FD2F39
:100E2800F301F40171087402031D1C2F700873028A
:100E3800031808000330F2009830890B212FF20BB9
:100E4800212F0130F3070030F43D162FF801F90186
:100E5800F601F701723021009900950123008C01F9
:100E68008D0121008C01FC308D008E01FC302400A6
:100E78008D0020008C018D018E01612F0A30F00059
:100E88000030F10087311427873120008D1F422F51
:100E98000130F8070030F93D7908803AF5008030D4
:100EA8007502031D592F07307802031C5D2FF801C6
:100EB800F9010130F6000030F70020008D1F492F9E
:100EC80078087904031D6A2F01308C0078037904AF
:100ED800031D702F02308C00023078067904031D40
:100EE800772F04308C000330780679040830031912
:100EF8008C00043078067904031D842F10308C0090
:100F0800053078067904031D8B2F20308C000630BD
:100F180078067904031D922F40308C00073078063C
:100F28007904031D992F80308C007708803AF500EA
:100F380080307502031DA22F01307602031CB12FE9
:100F48000A30F0000030F100873114278731013072
:100F5800F6070030F73D20008E017708803AF5004B
:100F680080307502031DBA2F64307602031C612F8E
:100F7800F601F70178087904031DC52F0130200018
:100F88008E0078037904031DCC2F023020008E00D8
:100F9800023078067904031DD42F043020008E0017
:100FA800033078067904031DDC2F083020008E00FA
:100FB800043078067904031DE42F103020008E00D9
:100FC800053078067904031DEC2F203020008E00B0
:100FD800063078067904031DF42F403020008E0077
:100FE800073078067904031D612F803020008E00B9
:080FF800612F200087312A2F30
:020000040001F9
:04000E00E4D9FFDE54
:00000001FF
