:08000000803102288731FD2F39
:100E7000F301F40171087402031D402F700873021E
:100E8000031808000330F2009830890B452FF20B4D
:100E9000452F0130F3070030F43D3A2FF801F901F6
:100EA000F601F701723021009900950123008C01B1
:100EB0008D0121008C0180308D008E018030240056
:100EC0008D00013020008C008D010130FB2F2000AF
:100ED0008D1B722F0A30F0000030F1008731382767
:100EE0008731672F0D170530F0000030F100873192
:100EF0003827873120000D130530F0000030F10055
:100F00008731382787310130F8070030F93D7908FB
:100F1000803AF50080307502031D902F043078026E
:100F2000031C942FF801F9010130F6000030F7009E
:100F300078087904031D9F2F013020008C0078036E
:100F40007904031DA62F023020008C0002307806A1
:100F50007904031DAE2F043020008C000330780686
:100F60007904031DB62F083020008C0020008D1F4F
:100F7000672F7708803AF50080307502031DC22F75
:100F800001307602031CD12F0A30F0000030F1004E
:100F90008731382787310130F6070030F73D2000D0
:100FA0008E017708803AF50080307502031DDA2F34
:100FB00064307602031CB62FF601F7017808790435
:100FC000031DE52F013020008E0078037904031DF6
:100FD000EC2F023020008E00023078067904031DC9
:100FE000F42F043020008E00033078067904031DAE
:100FF000B62F083020008E00B62F200087314E2FEC
:020000040001F9
:04000E00E4D9FFDE54
:00000001FF
