:08000000803102288731FD2F39
:100E1400F301F40171087402031D122F70087302A8
:100E2400031808000330F2009830890B172FF20BD7
:100E3400172F0130F3070030F43D0C2FF801F901AE
:100E4400F601F701723021009900950123008C010D
:100E54008D0121008C0180308D008E0180302400B2
:100E64008D00013020008C008D010130FB2F20000B
:100E74008D1B442F0A30F0000030F10087310A271F
:100E84008731392F0130F8070030F93D7908803A6D
:100E9400F50080307502083003197802031C542FC2
:100EA400F801F9010130F6000030F7007808790400
:100EB400031D5F2F013020008C0078037904031D8B
:100EC400662F023020008C00023078067904031D5E
:100ED4006E2F043020008C00033078067904031D43
:100EE400762F083020008C00043078067904031D26
:100EF4007E2F103020008C00053078067904031D05
:100F0400862F203020008C00063078067904031DDB
:100F14008E2F403020008C00073078067904031DA2
:100F2400962F803020008C0020008D1F392F7708E9
:100F3400803AF50080307502031DA22F013076023D
:100F4400031CB12F0A30F0000030F10087310A276A
:100F540087310130F6070030F73D20008E01770815
:100F6400803AF50080307502031DBA2F6430760292
:100F7400031C962FF601F70178087904031DC52F89
:100F8400013020008E0078037904031DCC2F023039
:100F940020008E00023078067904031DD42F04301B
:100FA40020008E00033078067904031DDC2F0830FE
:100FB40020008E00043078067904031DE42F1030DD
:100FC40020008E00053078067904031DEC2F2030B4
:100FD40020008E00063078067904031DF42F40307B
:100FE40020008E00073078067904031D962F803088
:0C0FF40020008E00962F20008731202F57
:020000040001F9
:04000E00E4D9FFDE54
:00000001FF
