:08000000803102288731FD2F39
:100E1400F301F40171087402031D122F70087302A8
:100E2400031808000330F2009830890B172FF20BD7
:100E3400172F0130F3070030F43D0C2FFC01FD01A6
:100E4400FA01FB010030F9000030F8000030F7002F
:100E54000030F600723021009900950123008C01C6
:100E64008D0121008C01FC308D008E01FC302400AA
:100E74008D0020008C018D018E015B2F0A30F00063
:100E84000030F10087310A27873120008D1F402F61
:100E94000130FC070030FD3D7D08803AF5008030CC
:100EA4007502031D572F07307C02031C5B2FFC01C6
:100EB400FD0120008D1F472F7C087D04031D642F36
:100EC40001308C007C037D04031D6A2F02308C00EA
:100ED40002307C067D04031D712F04308C00033026
:100EE4007C067D04083003198C0004307C067D04E4
:100EF400031D7E2F10308C0005307C067D04031DFD
:100F0400852F20308C0006307C067D04031D8C2F39
:100F140040308C0007307C067D04031D932F803005
:100F24008C007B087D06031D992F7A087C06031923
:100F3400AC2F0A30F0000030F10087310A278731E6
:100F44000130F6070030F73D0030F83D0030F93D40
:100F540020008E01F91B5B2F7908031DBB2F780835
:100F6400031DBB2F7708031DBB2F64307602031CBF
:100F74005B2F7D08FB007C08FA000030F90000308C
:100F8400F8000030F7000030F6007A087B04031DF7
:100F9400CD2F01308E007A037B04031DD32F023042
:100FA4008E0002307A067B04031DDA2F04308E0093
:100FB40003307A067B04083003198E0004307A0665
:100FC4007B04031DE72F10308E0005307A067B0466
:100FD400031DEE2F20308E0006307A067B04031D9D
:100FE400F52F40308E0007307A067B04031D5B2FFB
:0C0FF40080308E005B2F20008731202F02
:020000040001F9
:04000E00E4D9FFDE54
:00000001FF
