:08000000803102288731FD2F39
:100E1600F301F40171087402031D132F70087302A5
:100E2600031808000330F2009830890B182FF20BD4
:100E3600182F0130F3070030F43D0D2FF801F901AA
:100E4600F601F701723021009900950123008C010B
:100E56008D0121008C01FC308D008E01FC302400B8
:100E66008D0020008C018D018E01962F0A30F00036
:100E76000030F10087310B27873120008D1F392F75
:100E86000130F8070030F93D7908803AF5008030E6
:100E96007502031D502F07307802031C542FF801EA
:100EA600F9010130F6000030F70078087904031DD7
:100EB6005F2F013020008C0078037904031D662F14
:100EC600023020008C00023078067904031D6E2F54
:100ED600043020008C00033078067904031D762F39
:100EE600083020008C00043078067904031D7E2F1C
:100EF600103020008C00053078067904031D862FFB
:100F0600203020008C00063078067904031D8E2FD1
:100F1600403020008C00073078067904031D962F98
:100F2600803020008C0020008D1F402F7708803AEB
:100F3600F50080307502031DA22F01307602031CD6
:100F4600B12F0A30F0000030F10087310B278731CE
:100F56000130F6070030F73D20008E017708803A11
:100F6600F50080307502031DBA2F64307602031C2B
:100F7600962FF601F70178087904031DC52F013075
:100F860020008E0078037904031DCC2F0230200048
:100F96008E00023078067904031DD42F0430200019
:100FA6008E00033078067904031DDC2F08302000FC
:100FB6008E00043078067904031DE42F10302000DB
:100FC6008E00053078067904031DEC2F20302000B2
:100FD6008E00063078067904031DF42F4030200079
:100FE6008E00073078067904031D962F8030200086
:0A0FF6008E00962F20008731212F76
:020000040001F9
:04000E00E4D9FFDE54
:00000001FF
