:020000040000FA
:08000000803102288731FD2F39
:100CE400F301F401802E0330F2009830890B782E42
:100CF400F20B782E0130F3070030F43D71087402D2
:100D0400031D862E70087302031C892E8A2E752EED
:100D14000800F801F901F601F70172302100990089
:100D2400950123008C018D0121008C01A0308D00E0
:100D34008E01A03024008D00013020008C008D0134
:100D440001308E00172F0A30F0000030F100863198
:100D54007226863120008D1EB02EB12EA52E0130B4
:100D6400F8070030F93D7908803AF50080307502C3
:100D7400031DBE2E08307802031CC12EC22EC42EC1
:100D8400F801F9010130F6000030F7007808790421
:100D9400031DCD2ECE2ED12E013020008C007803E1
:100DA4007904031DD62ED72EDA2E023020008C00B3
:100DB400023078067904031DE02EE12EE42E04307F
:100DC40020008C00033078067904031DEA2EEB2EF4
:100DD400EE2E083020008C00043078067904031DC0
:100DE400F42EF52EF82E103020008C0005307806F5
:100DF4007904031DFE2EFF2E022F203020008C00CC
:100E0400063078067904031D082F092F0C2F403073
:100E140020008C00073078067904031D122F132F4D
:100E2400172F803020008C00172F20008D1E1B2FC1
:100E34001C2FAC2E7F2F0A30F0000030F1008631D9
:100E44007226863120008D1F282F292F1D2FFF3059
:100E5400F807FF30F93DF91F302F312F352F0730B8
:100E6400F8000030F9000130F6000030F70078088F
:100E74007904031D3E2F3F2F412F01308C0078034E
:100E84007904031D462F472F492F02308C0002306E
:100E940078067904031D4F2F502F522F04308C00F5
:100EA400033078067904031D582F592F5B2F08301F
:100EB4008C00043078067904031D612F622F642F9F
:100EC40010308C00053078067904031D6A2F6B2FCF
:100ED4006D2F20308C00063078067904031D732FA3
:100EE400742F762F40308C00073078067904031D68
:100EF4007C2F7D2F7F2F80308C008D1F822F832F9E
:100F0400242F7708803AF50080307502031D8C2F5A
:100F140001307602031C8F2F902F9D2F0A30F00092
:100F24000030F1008631722686310130F607003038
:100F3400F73D20008E017708803AF5008030750275
:100F4400031DA62F64307602031CA92FAA2F172F86
:100F5400F601F70178087904031DB12FB22FB52FDC
:100F6400013020008E0078037904031DBA2FBB2FB3
:100F7400BE2F023020008E00023078067904031D53
:100F8400C42FC52FC82F043020008E0003307806EC
:100F94007904031DCE2FCF2FD22F083020008E00CE
:100FA400043078067904031DD82FD92FDC2F103094
:100FB40020008E00053078067904031DE22FE32F0C
:100FC400E62F203020008E00063078067904031DB9
:100FD400EC2FED2FF02F403020008E0007307806E4
:100FE4007904031DF62FF72F172F803020008E0071
:0C0FF400172F80310228200086318B2E40
:020000040001F9
:04000E00E419FF1ED4
:00000001FF
