:08000000803102288731FD2F39
:100D7400F301F40171087402031DC22E700873029A
:100D8400031808000330F2009830890BC72EF20BC9
:100D9400C72E0130F3070030F43DBC2EF801F901F1
:100DA400F601F701723021009900950123008C01AE
:100DB4008D0121008C01A0308D008E01A030240013
:100DC4008D00013020008C008D010130FB2F2000AC
:100DD4008D1AF42E0A30F0000030F1008631BA2664
:100DE4008631E92E0130F8070030F93D7908803A60
:100DF400F50080307502083003197802031C042FB3
:100E0400F801F9010130F6000030F70078087904A0
:100E1400031D0F2F013020008C0078037904031D7B
:100E2400162F023020008C00023078067904031D4E
:100E34001E2F043020008C00033078067904031D33
:100E4400262F083020008C00043078067904031D16
:100E54002E2F103020008C00053078067904031DF5
:100E6400362F203020008C00063078067904031DCC
:100E74003E2F403020008C00073078067904031D93
:100E8400462F803020008C0020008D1A972FE92EE9
:100E94000A30F0000030F1008631BA268631200095
:100EA4008D1F4A2FFF30F807FF30F93DF91F5E2FE1
:100EB4000730F8000030F9000130F6000030F70088
:100EC40078087904031D682F01308C0078037904B5
:100ED400031D6E2F02308C00023078067904031D46
:100EE400752F04308C000330780679040830031918
:100EF4008C00043078067904031D822F10308C0096
:100F0400053078067904031D892F20308C000630C3
:100F140078067904031D902F40308C000730780642
:100F24007904031D972F80308C008D1F512F770873
:100F3400803AF50080307502031DA22F013076023D
:100F4400031CB12F0A30F0000030F1008631BA26BC
:100F540086310130F6070030F73D20008E01770816
:100F6400803AF50080307502031DBA2F6430760292
:100F7400031C462FF601F70178087904031DC52FD9
:100F8400013020008E0078037904031DCC2F023039
:100F940020008E00023078067904031DD42F04301B
:100FA40020008E00033078067904031DDC2F0830FE
:100FB40020008E00043078067904031DE42F1030DD
:100FC40020008E00053078067904031DEC2F2030B4
:100FD40020008E00063078067904031DF42F40307B
:100FE40020008E00073078067904031D462F8030D8
:0C0FF40020008E00462F20008631D02EF9
:020000040001F9
:04000E00E4D9FFDE54
:00000001FF
