:08000000803102288731FD2F39
:100F7C00723021009900950123008C018D01210014
:100F8C008C01FC308D008E01FC3024008D00200083
:100F9C008C018D01FB2FAA308C00AA308E008D1B8A
:100FAC00DC2FD12F55308C0055308E000D1BE32FCC
:100FBC00D82F99308C0099308E008D1AEA2FDF2FA4
:100FCC0066308C0066308E000D1AF12FE62F9630AD
:100FDC008C0096308E008D19F82FED2F69308C0017
:100FEC0069308E000D1DF42F8C018E01D52F200041
:040FFC008731BE2F4C
:020000040001F9
:04000E00E4D9FFDE54
:00000001FF
